:020000040800F2
:1000000088060020650100088B0100088D010008AA
:1000100000000000000000000000000000000000E0
:100020000000000000000000000000008F01000838
:10003000000000000000000091010008930100088A
:100040009501000895010008950100089501000838
:100050009501000895010008950100089501000828
:100060009501000895010008950100089501000818
:100070009501000895010008950100089501000808
:100080009501000800000000000000009501000834
:100090000000000095010008C50600089501000851
:1000A0000000000095010008950100089501000876
:1000B0009501000800000000950100089501000866
:1000C00000F002F800F03EF80CA030C80838241800
:1000D0002D18A246671EAB4654465D46AC4201D180
:1000E00000F030F87E460F3E0FCCB6460126334274
:1000F00000D0FB1AA246AB4633431847800F0000DE
:10010000A00F0000103A02D378C878C1FAD852077D
:1001100001D330C830C101D504680C6070470000BD
:100120000023002400250026103A01D378C1FBD813
:10013000520700D330C100D50B6070471FB51FBDFB
:1001400010B510BD00F0F8F81146FFF7F7FF00F00A
:10015000B3FC00F010F903B4FFF7F2FF03BC00F0AA
:1001600017F900000F4880F308880F480168090E4E
:100170000E4A914205D10E480E4901600E480F49C2
:1001800001600F4880470F480047FEE7FEE7FEE7A3
:10019000FEE7FEE7FEE700000B480C490C4A0D4B5A
:1001A0007047000088060020040000001F000000C7
:1001B0001810024001000000000001400000000093
:1001C00051060008C10000088800002088060020B1
:1001D0008802002088020020002203098B422CD3D1
:1001E000030A8B4211D300239C464EE003460B4387
:1001F0003CD4002243088B4231D303098B421CD3E9
:10020000030A8B4201D394463FE0C3098B4201D3DA
:10021000CB01C01A524183098B4201D38B01C01A12
:10022000524143098B4201D34B01C01A5241030989
:100230008B4201D30B01C01A5241C3088B4201D338
:10024000CB00C01A524183088B4201D38B00C01AE5
:10025000524143088B4201D34B00C01A5241411A0C
:1002600000D201465241104670475DE0CA0F00D0EF
:100270004942031000D34042534000229C460309E8
:100280008B422DD3030A8B4212D3FC22890112BA6E
:10029000030A8B420CD3890192118B4208D3890146
:1002A00092118B4204D389013AD0921100E089095E
:1002B000C3098B4201D3CB01C01A524183098B423F
:1002C00001D38B01C01A524143098B4201D34B0128
:1002D000C01A524103098B4201D30B01C01A52418B
:1002E000C3088B4201D3CB00C01A524183088B4212
:1002F00001D38B00C01A5241D9D243088B4201D39B
:100300004B00C01A5241411A00D201466346524185
:100310005B10104601D34042002B00D54942704784
:1003200063465B1000D3404201B50020C046C04682
:1003300002BD704770477047754600F025F8AE461D
:10034000050069465346C008C000854618B020B570
:10035000FFF722FF60BC00274908B6460026C0C54B
:10036000C0C5C0C5C0C5C0C5C0C5C0C5C0C5403D6D
:1003700049008D46704710B50446C046C046204629
:10038000FFF7E9FE10BD0000004870472400002080
:1003900001491820ABBEFEE726000200704710B5E9
:1003A0000446802000F048F8204600F045F810BDD3
:1003B00000BF0D4880690121C90308400028F8D119
:1003C00009484068094908400749486008464068AC
:1003D000074908430449486000BF03488069402139
:1003E00008400028F9D17047005400400078FFFF12
:1003F0007820FF0010B500BF012000F0ADF9012109
:1004000048400C49896908400028F5D109484068EE
:100410000121890308430749486000BF05488069F6
:10042000202108400028F9D00248C069084301494A
:10043000C86110BD0054004010B5044600BF012043
:1004400000F08AF90749896908400028F7D0054873
:10045000846200BF03488069402108400028F9D128
:1004600010BD000000540040F8B507460D46FFF7E8
:100470009FFF4020FFF7E0FF00241DE038462038B2
:100480008100401800190F490E5C002D04D0F14383
:10049000C8B2FFF7D1FF02E03046FFF7CDFF042CD2
:1004A00008D1002D03D0FF20FFF7C6FF02E0002097
:1004B000FFF7C2FF601CC4B2052CDFDBFFF79AFF19
:1004C000F8BD00001A0C000870B5002417E0FFF713
:1004D0006FFF2020FFF763FF0020FFF760FF402041
:1004E000FFF7AAFF002504E00020FFF7A5FF681C26
:1004F000C5B2802DF8DBFFF77DFF601CC4B2082C6D
:10050000E5DB70BD70B504460D46FFF751FF0F2CBB
:1005100006DD2111102211430846FFF740FF02E0DB
:100520001020FFF73CFF2007000FFFF738FFB02136
:1005300029430846FFF733FFFFF75CFF70BD00005B
:1005400010B5FFF735FFAE20FFF729FF002405E0C7
:100550000549085DFFF723FF601CC4B2122CF7D9D0
:10056000FFF748FF10BD0000080C0008F3B585B088
:1005700006460124002700200190002E01DB3546AD
:1005800002E075420120019000BF0A2D0ED30A211E
:100590002846FFF721FE0F463846303002A908559D
:1005A0000A212846FFF718FE054604E028463030A9
:1005B00002A908550025601CC4B2002DE5D10198A0
:1005C000002803D02D2002A9085501E0601EC4B206
:1005D00000BF02A9085D0699FFF746FF601EC4B27E
:1005E000002CF6D107B0F0BD70B504460D4604E00E
:1005F00020782946FFF738FF641C20780028F7D1BF
:1006000070BD000010B5024600201BE000BF0F4B7C
:100610009B6802242340002BF9D0135C0B4C2373FE
:1006200000BF0A4B9B6880242340002BF9D100BFF8
:10063000064B9B68DB07DB0F002BF9D0034BDB6815
:10064000431CD8B28842E1DB10BD000000300140FD
:1006500019480068012108431749086008464068A6
:100660001649084014494860084600681449084083
:1006700011490860084600680121890488430E4931
:100680000860084640683F21090488430A494860D9
:100690000846C06A00090001C8620846006BFF21D5
:1006A000D4318843044908630846406B4008400041
:1006B0004863002088607047001002400CB8FF08B3
:1006C000FFFFF6FE00B507480069C007C00F00280D
:1006D00007D000F009F803480069400840000149CC
:1006E000086100BD0048014016480088002804D079
:1006F00014480088401E13490880134800880028C9
:1007000009D1FF20F53010490880104840690121C7
:1007100048400E4948610E480088002806D1FF2055
:100720002D300B49088001200A49087006480088CE
:10073000401E0549088006480088401E044908807C
:10074000704700000400002006000020000400485C
:1007500008000020010000200146104A00BF104898
:10076000806931231B011840002803D11046521E16
:1007700000280BD16320C000094BD861184680695E
:1007800001231843064B9861002070470448806994
:1007900008400028E3D00120F7E700001027000000
:1007A00000540040F0B505460E461746002430E0E0
:1007B0003046A04080210840002803D0702018490E
:1007C000085502E04020164908552846A0408021DF
:1007D0000840002805D0702120460830104A1154E6
:1007E00004E04021204608300D4A11543846A0400C
:1007F00080210840002805D0702120461030084A8A
:10080000115404E0402120461030054A1154601C68
:10081000C4B2082CCCDB18210148FFF7F3FEF0BD71
:100820000C00002010B5002819DB1A4A03231B0214
:10083000D21883089B00D2588307DC0EFF23A34005
:100840009A438B071B0E8407E40EA3401A43114BF7
:10085000032424021B198408A4001A5118E00E4A2C
:1008600003071B0F083B9B089B00D2588307DC0E35
:10087000FF23A3409A438B071B0E8407E40EA3407B
:100880001A43054B0407240F083CA408A4001A517E
:1008900010BD000000E100E01CED00E0034908800D
:1008A00000BF024909880029FBD1704704000020DD
:1008B00010B57848406B0121090408437549486325
:1008C00000BF7448406B0121490408400028F8D05B
:1008D00070484068032108436E49486000BF6D4876
:1008E00040680C2108400028F9D06A48006B1021AC
:1008F00008436849086308460068400840000860EB
:100900000846806901218904084362498861624878
:10091000624988620120C862084600689121084344
:100920005E4908600846C068012108435B49C86009
:100930001620002809DB00BF00BFC206D20E01212D
:100940009140574A116000BF00BF00BF052116202B
:10095000FFF768FF4F4840690121890408434D496A
:10096000486150480068012108434E4908604948E1
:100970004069C9010843474948610920C006006829
:10098000302188430921C90608600846C068102143
:1009900008430921C906C8603E484069012189040D
:1009A00008433C4948613F48006805214903084322
:1009B0003C490860084680680F210903084339490B
:1009C000886008464068C0210843364948600846A8
:1009D000006A112109060843324908622D48C0699E
:1009E000C90208432B49C8612F48304908610846AD
:1009F00040680321C90288432C49486008460068C2
:100A0000012108432949086022484069012149041D
:100A10000843204948610920C006806824490843EA
:100A20000921C9068860084600681521C9020843E3
:100A30000921C90608600846006A0862084600687D
:100A4000FF21413108430921C90608600846806832
:100A50000F21090308430921C90688600D488069F0
:100A60000121090308430B49886112480068C72126
:100A7000890008430F490860084640688914084304
:100A80000C4948600846006840210843094908604D
:100A900062B610BD001002407FBB0000004801405C
:100AA00000E100E000040048090333500054004016
:100AB000F0FF000000300140FFF7FAFE6420FFF76E
:100AC000EDFEFFF73DFDFFF7FFFC00210A20FFF7D9
:100AD00019FD01213DA0FFF787FD75E03F48007833
:100AE000002871D000203D49087007210120FFF740
:100AF00009FD00213AA0FFF777FD3B490878097806
:100B0000491C394B19700021FFF730FD002137A037
:100B1000FFF76AFD002419E0002211462046FFF786
:100B200041FE03210120FFF7EDFC002130A0FFF77B
:100B30005BFD00212046FFF719FD00212BA0FFF7E8
:100B400053FD0220FFF7AAFE601CC4B2FF2CE3DBBA
:100B5000002419E0002221461046FFF723FE03215E
:100B60000120FFF7CFFC002123A0FFF73DFD00216E
:100B70002046FFF7FBFC00211CA0FFF735FD0220FB
:100B8000FFF78CFE601CC4B2FF2CE3DB002419E0ED
:100B9000224600210846FFF705FE03210120FFF74A
:100BA000B1FC002116A0FFF71FFD00212046FFF732
:100BB000DDFC00210DA0FFF717FD0220FFF76EFE00
:100BC000601CC4B2FF2CE3DB88E7000020544553CF
:100BD00054205753323831324220000001000020A7
:100BE0004C4344203D200000000000202020200035
:100BF00052203D200000000047203D200000000062
:100C000042203D2000000000A83FD30040A1C8DAE8
:100C100012817FA4A6D5808D14AF000000000000D3
:100C2000002F00000007000700147F147F14242AFF
:100C30007F2A12C4C81026463649552250000503A3
:100C40000000001C2241000041221C0014083E0844
:100C50001408083E08080000503000101010101052
:100C6000006060000020100804023E5149453E002B
:100C7000427F400042615149462141454B311814A1
:100C8000127F1027454545393C4A494930017109D1
:100C900005033649494936064949291E00363600BA
:100CA00000005636000008142241001414141414D5
:100CB00000412214080201510906324959513E7E71
:100CC0001111117E7F494949363E414141227F4100
:100CD00041221C7F494949417F090909013E414997
:100CE000497A7F0808087F00417F41002040413F4A
:100CF000017F081422417F404040407F020C027F68
:100D00007F0408107F3E4141413E7F090909063EAC
:100D10004151215E7F09192946464949493101015E
:100D20007F01013F4040403F1F2040201F3F40388F
:100D3000403F631408146307087008076151494570
:100D400043007F414100552A552A550041417F000B
:100D5000040201020440404040400001020400201F
:100D6000545454787F4844443838444444203844E8
:100D700044487F3854545418087E0901020C5252DA
:100D8000523E7F0804047800447D40002040443DEA
:100D9000007F1028440000417F40007C0418047844
:100DA0007C0804047838444444387C14141408083B
:100DB0001414187C7C080404084854545420043F3C
:100DC0004440203C4040207C1C2040201C3C4030C3
:100DD000403C44281028440C5050503C4464544C2F
:100DE00044000836410000007F0000004136080042
:100DF00004020408040000000000000000000000DD
:100E000000000000000000000000000000000000E2
:100E100000000000000000000000000000000000D2
:100E200000000000000000000000000000000000C2
:100E300000000000000000000000000000000000B2
:100E400000000000000000000000000000000000A2
:100E50000000000000000000000000000000000092
:100E60000000000000000000000000000000000082
:100E70000000000000000000000000000000000072
:100E80000000000000000000000000000000000062
:100E90000000000000000000000000000000000052
:100EA0000000000000000000000000000000000042
:100EB00000000000000000000000360000000000FC
:100EC0000000000000000000000000003E49494909
:100ED00022000000000000000000000000000000F0
:100EE000000000000044457C454400000000000074
:100EF0000000000000417F410000447D40000000F0
:100F000000000000000000000000000000000000E1
:100F100000000000000000000000000038544428D9
:100F200000000000000000000000000000000000C1
:100F300000000000004A487A40407E1111117E7F77
:100F4000494949317F494949367F01010103603EE2
:100F500021217F7F4949494163147F146322494914
:100F600049367F1008047F7F1009047F7F08142210
:100F7000417C0201017F7F020C027F7F0808087F0D
:100F80003E4141413E7F0101017F7F090909063E43
:100F90004141412201017F0101074848483F1C228D
:100FA0007F221C63140814633F20203F6007080859
:100FB000087F7F407F407F3F203F207F017F484860
:100FC000307F4848307F7F48484830224949493E71
:100FD0007F083E413E462919097F205454547878B1
:100FE000545454207C545454287C04040400603825
:100FF00024386038545454186C107C106C284454B5
:1010000054283C4040207C3C4042207C7C101028EE
:1010100044601008047C7C0810087C7C1010107C54
:1010200038444444387C0404047C7C141414083888
:101030004444442004047C04040C5050503C1824C4
:101040007C241844281028443C20203C600C1010BC
:10105000107C7C407C407C3C203C207C047C4848CC
:10106000307C4830007C7C48484830284454543810
:101070007C10384438582424247C00009C1000083C
:10108000000000200C00000004010008A810000867
:101090000C0000207C060000200100080000000079
:0810A000000000000000000048
:040000050800016589
:00000001FF
